:100000000C9446000C9465000C9465000C946500FB
:100010000C9465000C9465000C9465000C946500CC
:100020000C94C8080C94ED080C9465000C946500C1
:100030000C9465000C9465000C9465000C94EE071C
:100040000C9465000C9465000C94E3060C944A042F
:100050000C9465000C9472000C9465000C9465007F
:100060000C9465000C9465000C9465000C9465007C
:100070000C9465000C9465000C94B5060C94730404
:100080000C9465000C9465000C94650011241FBE4F
:10009000CFEFD0E1DEBFCDBF12E0A0E0B1E0E2EDF6
:1000A000F5E100E00BBF02C007900D92AA34B10742
:1000B000D9F714E0AAE4B2E001C01D92AB3FB1074A
:1000C000E1F70E9403020C94E80A0C9400003E9AA7
:1000D00086B18F6A86B90895369A0895379808953B
:1000E000379A08951F920F920FB60F9211242F93F3
:1000F0003F934F935F936F937F938F939F93AF93B0
:10010000BF93EF93FF9380910101833009F47CC08A
:10011000843030F4813071F0823009F030C13FC05A
:10012000853009F4DBC0853008F4A3C0863009F0BF
:1001300026C1FAC064B175B180914A0290914B0218
:10014000680F791F70934B0260934A0280910001FF
:10015000815080930001882309F011C1379882E013
:100160008093010180E18093000183E487B954E02A
:10017000759567955A95E1F7882777FD8095982FB3
:100180000E94480A20E030ED4FE451E40E949D0AAD
:100190000E942B0A7093DC036093DB03EAC064B116
:1001A00075B180914A0290914B02680F791F70934C
:1001B0004B0260934A0280910001815080930001BC
:1001C000882309F0DCC0379883E08093010180E147
:1001D0008093000184E487B944E0759567954A955A
:1001E000E1F7882777FD8095982F0E94480A20E044
:1001F00030ED4FE451E40E949D0A0E942B0A709357
:10020000E2036093E103B5C064B175B180914A0225
:1002100090914B02680F791F70934B0260934A02D2
:1002200080910001815080930001882309F0A7C0CC
:10023000379884E08093010180E18093000185E498
:1002400087B934E0759567953A95E1F7882777FD8A
:100250008095982F0E94480A28E03CEA4CE25FE330
:100260000E949D0A0E942B0A7093F3036093F2038D
:1002700080C064B175B180914A0290914B02680FC1
:10028000791F70934B0260934A0280910001815064
:1002900080930001882309F072C0379885E080932D
:1002A000010180E18093000186E487B924E075951F
:1002B00067952A95E1F7882777FD8095982F0E940A
:1002C000480A28E03CEA4CE25FE30E949D0A0E9453
:1002D0002B0A7093EA036093E9034BC024B135B154
:1002E00080914A0290914B02280F391F30934B02A4
:1002F00020934A028091000181508093000188235D
:10030000F1F5379886E08093010180E18093000148
:1003100087E487B994E0359527959A95E1F730936E
:10032000F8032093F70325C024B135B180914A0228
:1003300090914B02280F391F30934B0220934A02B1
:10034000809100018150809300018823C1F4379887
:1003500081E08093010180E18093000181E487B90D
:1003600084E0359527958A95E1F73093E60320934D
:10037000E50310924B0210924A02379A369AFF9187
:10038000EF91BF91AF919F918F917F916F915F910D
:100390004F913F912F910F900FBE0F901F90189586
:1003A0008AB388678ABB82B1886182B9A4E6B0E06B
:1003B0008C9188608C93E5E6F0E08081877F808374
:1003C000A298BF9A8C9184608C938C9180618C935D
:1003D00081B3806C81BB82B1846482B984B3836051
:1003E00084BBBD9A84B38C6084BBBE9A84B38063A3
:1003F00084BB159A84B3806C84BB81B3806381BB5A
:10040000109261000895DF92EF92FF920F931F9375
:10041000CF93DF93CDB7DEB728970FB6F894DEBF42
:100420000FBECDBF0E94D0010E941A040E94340862
:100430000E9410070E9467000E946C0080E090E01C
:100440000197F1F7789482E091E00E94B505969AC1
:100450001E98DD24FF240E94ED04882309F4C5C002
:100460000E94A1048B3609F4A1C08C36C8F48636EC
:1004700009F4B8C0873650F4843609F449C085368B
:1004800008F043C0823609F0B0C039C0883609F49C
:1004900097C0883608F48FC08A3609F0A6C06CC0B1
:1004A0008337C9F1843750F48F3609F498C0803708
:1004B00009F44AC08C3609F098C024C0863739F058
:1004C000893709F487C0843709F08FC07EC08FE078
:1004D00091E00E94B5058E010F5F1F4F68E0C801D3
:1004E0000E94FB05C8010E94C2098C0182E391E0D1
:1004F0000E94B505B801C8010E94200776C00E947D
:100500006A0773C00E94750770C00E9469086DC0B9
:100510000E946F086AC08091DF039091E003892BED
:1005200031F488EC90E09093F6038093F50380918A
:10053000DF039091E003883C910509F056C01092CA
:10054000F6031092F50351C085E391E00E94B505D2
:100550008E010F5F1F4F68E0C8010E94FB05C801B4
:100560000E94C2098C0182E391E00E94B5051093BC
:10057000F6030093F50339C08FE091E00E94B505C2
:100580008E010F5F1F4F68E0C8010E94FB05C80184
:100590000E94C2098C0182E391E00E94B505C80166
:1005A0000E948007C8010E94A3071FC00E949B07EA
:1005B0000E94BE071AC00E94D5070E94E30715C01B
:1005C0000E94D2070E94E00710C00E94D8070E9434
:1005D000E6070BC00E94DC070E94EA0706C082B350
:1005E000806302C082B38F7C82BB8091D8039091DC
:1005F000D903892B09F013C10091E5031091E6039B
:10060000B801882777FD8095982F0E94480A17FF28
:1006100006C020E030E040E857E40E94E90920E00D
:1006200030E040EA50E40E949D0A0E942B0ADC015F
:10063000CB010E948709E82E0091F7031091F8037F
:10064000B801882777FD8095982F0E94480A17FFE8
:1006500006C020E030E040E857E40E94E90920E0CD
:1006600030E040EA50E40E949D0A0E942B0ADC011F
:10067000CB010E948709282F8091DB039091DC0336
:100680008152934038F48091E1039091E2038152CA
:100690009340B0F1F39483E08F1508F0C0C01A9A2C
:1006A0008091DB039091DC038152934040F4809170
:1006B000E1039091E2038152934008F4AFC080912E
:1006C000E7039091E803181619062CF466E57FEF0E
:1006D00086E59FEF04C06AEA70E08AEA90E00E9433
:1006E000200780E293E00E943C0861E07FEF8FEFFB
:1006F00090E00E9420078CE494E00E943C088EC0A9
:100700004E2D5527022F11271A984F315105C0F150
:100710000F311105A8F1842F992787FD9095202F7F
:10072000332727FD3095821B930B875F9F4F4CF437
:1007300088EC90E09093EC038093EB0386E490E0E8
:1007400013C0842F801B8A304CF086E490E0909395
:10075000EC038093EB0388EC90E006C08FEF90E011
:100760009093EC038093EB039093E8038093E7036B
:1007700084EF91E09093D9038093D803DD244EC099
:10078000CA010B97449720F0C8010B97449760F576
:10079000D3944F31510550F468E37FEF88EC90E03B
:1007A0000E94200788EE93E00E943C080F3111055B
:1007B00050F468EC70E088E39FEF0E94200788EE19
:1007C00093E00E943C0835E03D1558F468EC70E079
:1007D00088E39FEF0E94200788EB9BE00E943C0883
:1007E000DD2484EF91E016C068E37FEF88E39FEF9C
:1007F0000E94200780E293E00E943C0868E37FEFBC
:1008000088EC90E00E94200780EB94E00E943C0876
:1008100084E690E09093D9038093D803FF246091FD
:10082000E7037091E8038091EB039091EC030E9441
:10083000200711CE80E189B988E98AB986E88093DA
:1008400095001092ED031092DA031092EE031092CD
:10085000F0031092EF03089580E18093990088E9F6
:1008600080939A0086E880939D001092F403109282
:10087000E3031092DD031092E4031092EF03089556
:100880008AB187708AB90895EAE9F0E080818770BB
:10089000808308951F920F920FB60F9211248F93A9
:1008A0009F93EF93FF939091F0038091EE0398173D
:1008B00081F0E091EE03EF5FEF73E0934F02E0937E
:1008C000EE03FF27EC52FD4F808180934E028CB9DE
:1008D00001C05598FF91EF919F918F910F900FBE9E
:1008E0000F901F9018951F920F920FB60F92112420
:1008F0008F939F93EF93FF939091E4038091DD0397
:10090000981789F0E091DD03EF5FEF73E0934D02FC
:10091000E093DD03FF27EC56FC4F808180934C026F
:1009200080939C0005C080919A008F7D80939A00EF
:10093000FF91EF919F918F910F900FBE0F901F909D
:1009400018959091DA038091ED039817D1F3E09117
:10095000ED03EF5FEF77E093ED03FF27EC5AFD4FD8
:100960008081992708959091E3038091F40398176B
:10097000D1F3E091F403EF5FEF77E093F403FF2707
:10098000EC5EFC4F808199270895282F9091F00309
:100990009F5F9F738091EE039817E1F3E92FFF2784
:1009A000EC52FD4F20839093F003559A0895282F21
:1009B0009091E4039F5F9F738091DD039817E1F3AB
:1009C000E92FFF27EC56FC4F20839093E40380919E
:1009D0009A00806280939A0008959091DA03809142
:1009E000ED0320E030E0981711F021E030E0C9017C
:1009F00008959091E3038091F40320E030E098178C
:100A000011F021E030E0C90108959091F003809148
:100A1000EE0320E030E0981711F021E030E0C9014A
:100A200008959091E4038091DD0320E030E0981771
:100A300011F021E030E0C90108952FB7F8949091AA
:100A4000DA038091ED03981740F08091DA039091DA
:100A5000ED032FBF891B992708958091DA039091A8
:100A6000ED032FBF891B8058992708952FB7F8945D
:100A70009091E3038091F403981740F08091E30391
:100A80009091F4032FBF891B992708958091E30368
:100A90009091F4032FBF891B8058992708952FB791
:100AA000F8949091F0038091EE03981740F08091B4
:100AB000F0039091EE032FBF891B99270895809131
:100AC000F0039091EE032FBF891B805C9927089556
:100AD0002FB7F8949091E4038091DD03981740F0CC
:100AE0008091E4039091DD032FBF891B992708951E
:100AF0008091E4039091DD032FBF891B805C9927CF
:100B000008958FB7F8941092F0031092EE038FBF00
:100B100008958FB7F8941092E4031092DD038FBF0D
:100B200008958FB7F8941092DA031092ED038FBFF7
:100B300008958FB7F8941092E3031092F4038FBFD7
:100B4000089580E00E94C5048DE00E94C5048AE0FB
:100B50000E94C504089580E00E94D7048DE00E94A1
:100B6000D7048AE00E94D7040895CF92DF92EF92D3
:100B7000FF920F931F93CF93DF936C01C0E0D0E0FF
:100B8000EC2EFF2486010E0D1F1DF80180810E94AE
:100B9000C5042196F8018081882391F7C701DF9170
:100BA000CF911F910F91FF90EF90DF90CF9008951C
:100BB000CF92DF92EF92FF920F931F93CF93DF9329
:100BC0006C01C0E0D0E0EC2EFF2486010E0D1F1D4D
:100BD000F80180810E94D7042196F8018081882342
:100BE00091F7C701DF91CF911F910F91FF90EF9087
:100BF000DF90CF900895EF92FF920F931F93CF93C2
:100C0000DF93EC01062F10E014C07E01E80EF91E00
:100C10000E94A104F70180838D3021F08A3011F009
:100C2000882331F4F70110821F5F812F992709C0B3
:100C30001F5F812F9927101741F7C80FD91F2197E0
:100C40001882DF91CF911F910F91FF90EF9008953F
:100C5000EF92FF920F931F93CF93DF93EC01062F38
:100C600010E014C07E01E80EF91E0E94B304F701E3
:100C700080838D3021F08A3011F0882331F4F70120
:100C800010821F5F812F992709C01F5F812F99272D
:100C9000101741F7C80FD91F21971882DF91CF9104
:100CA0001F910F91FF90EF900895FF920F931F9364
:100CB000CF93DF938C01F62EEC0103C089910E9443
:100CC000C504C8018F0D911DC817D907B9F7DF9169
:100CD000CF911F910F91FF900895FF920F931F9353
:100CE000CF93DF938C01F62EEC0103C089910E9413
:100CF000D704C8018F0D911DC817D907B9F7DF9127
:100D0000CF911F910F91FF900895FF920F931F9322
:100D1000CF93DF938C01F62EEC0103C00E94A10457
:100D20008993C8018F0D911DC817D907B9F7DF91B5
:100D3000CF911F910F91FF900895FF920F931F93F2
:100D4000CF93DF938C01F62EEC0103C00E94B30415
:100D50008993C8018F0D911DC817D907B9F7DF9185
:100D6000CF911F910F91FF9008951F920F920FB690
:100D70000F9211248F939F93EF93FF9390919C0078
:100D800090935102E091E303EF5FEF77E09350021D
:100D9000E093E3038091F403E81741F48FB7F894EC
:100DA0001092E3031092F4038FBF04C0FF27EC5EA0
:100DB000FC4F9083FF91EF919F918F910F900FBE09
:100DC0000F901F9018951F920F920FB60F9211243B
:100DD0008F939F93EF93FF939CB190935302E09175
:100DE000DA03EF5FEF77E0935202E093DA0380914A
:100DF000ED03E81741F48FB7F8941092DA031092DC
:100E0000ED038FBF04C0FF27EC5AFD4F9083FF9185
:100E1000EF919F918F910F900FBE0F901F9018959B
:100E2000EBE8F0E08081816F8083EAE8F0E0808188
:100E300082608083E5E6F0E08081877F808308958B
:100E40009C01892B21F461157105F1F523C0809176
:100E50006500886080936500121613061CF4DE9A04
:100E6000DD9802C0DE98DD9A161617061CF4DC9A8F
:100E7000DB9805C06115710569F0DC98DB9A77FF96
:100E800003C0709561957F4F6F3F71052CF08FEF18
:100E900090E004C060E070E0862F99279093850071
:100EA00080938400C90137FF03C0909581959F4FBF
:100EB0008F3F91051CF08FEF90E001C09927909330
:100EC00087008093860008958091650088608093F4
:100ED0006500CACF6FEF70E08FEF90E00E942007AF
:100EE000DB9ADC9ADD9ADE9A0895E5E6F0E08081EF
:100EF000877F8083089581EA8FBD82E08EBD08954B
:100F0000181619061CF4A99AA89804C0009769F04D
:100F1000A998A89A97FF03C0909581959F4F8F3FFE
:100F200091052CF08FEF90E003C080E090E09927CE
:100F30009BBD8ABD089585B3836085BB8FEF90E02C
:100F40009BBD8ABD0895181619061CF4AB9AAA9881
:100F500004C0009769F0AB98AA9A97FF03C09095D8
:100F600081959F4F8F3F91052CF08FEF90E003C04C
:100F700080E090E0992799BD88BD089585B38C6085
:100F800085BB8FEF90E099BD88BD0895EBE8F0E058
:100F900080818860808380E890E0909383008093D4
:100FA00082000895AD9AAC980895AD98AC9A0895D2
:100FB00085B38F7C85BB089585B3806385BB089519
:100FC000AF9AAE980895AF98AE9A089585B38F738F
:100FD00085BB089585B3806C85BB08951F920F92E1
:100FE0000FB60F9211242F938F939F938091D40368
:100FF0009091D503892B49F08091D4039091D5032A
:1010000001979093D5038093D4038091D603909158
:10101000D70301969093D7038093D6030197845FFB
:10102000914058F082B3805882BB83B190E4892705
:1010300083B91092D7031092D6038091D803909170
:10104000D903892B49F08091D8039091D903019756
:101050009093D9038093D8039F918F912F910F90F4
:101060000FBE0F901F90189589EF81BF87B78260E0
:1010700087BF8CE083BF08959093D5038093D403FA
:101080008091D4039091D503892BD1F70895E4E69C
:10109000F0E080818C618083BF9AE5E6F0E080819A
:1010A0008860808380818F7E808385B58D6085BDDB
:1010B00087B7806887BF17981F9A8AB780688ABFEA
:1010C00089B7806889BF1092DE0388E28093F103BC
:1010D0000895E5E6F0E080818F7E80830895E5E65F
:1010E000F0E08081806180830895882359F08091A9
:1010F00065008460809365008091DF039091E00338
:1011000001970AC0809165008B7F80936500809174
:10111000DF039091E00301969093E0038093DF0357
:10112000C79A85E08A95F1F7C798089584E6809379
:10113000F10384E690E09093F6038093F50304C0F6
:101140008091DE03882339F48091DF039091E003DE
:1011500084369105A9F78091DE03882351F486E057
:101160009FEF9093F6038093F5038091DE0388232D
:10117000E1F31092DE0388E28093F1038091F103A2
:1011800083BD88EC90E09093F6038093F503089577
:101190001F920F920FB60F9211248F939F9381E0AD
:1011A0008093DE038091DF039091E0038035910509
:1011B0003CF08091DF039091E0038937910534F092
:1011C00084E690E09093E0038093DF039F918F91FA
:1011D0000F900FBE0F901F9018951F920F920FB691
:1011E0000F9211240F931F932F933F934F935F936D
:1011F0006F937F938F939F93AF93BF93EF93FF93DF
:101200002091DF033091E0038091F5039091F60384
:1012100028173907D4F42091DF033091E00380913F
:10122000F5039091F6034E97821793071CF483B54C
:101230008F5F07C093B58091F103891718F483B5C8
:10124000815083BD80E00E9475082091DF033091BA
:10125000E0038091F5039091F60382179307D4F48D
:101260002091DF033091E0038091F5039091F60324
:101270004E96281739071CF483B58F5F07C093B5C6
:101280008091F103891718F483B5815083BD81E003
:101290000E9475082091DF033091E0038091F503EF
:1012A0009091F6032817390721F48091F103825EAB
:1012B00083BD8091DF039091E00397FD15C080917D
:1012C000DF039091E003893C910574F40091DF0302
:1012D0001091E0038091F7039091F8030E94B30905
:1012E00005501C4FF8018083FF91EF91BF91AF91A2
:1012F0009F918F917F916F915F914F913F912F912E
:101300001F910F910F900FBE0F901F90189521E025
:10131000833C920710F480E524C021E0843F9207CB
:1013200010F486E41EC022E08632920710F48CE3AB
:1013300018C022E08C36920710F482E312C023E03A
:10134000803C920710F48EE10CC025E088379207AC
:1013500010F484E106C0865F994010F48AE001C071
:1013600080E0992708959695879596958795EAE464
:10137000F1E0E80FF11D808199279093FA038093A3
:10138000F9030895FC0188279927E89421912032D8
:10139000E9F3293010F02E30C8F32B3241F02D3212
:1013A00039F4689404C00E94E009820F911D2191D4
:1013B00020532A30C0F31EF4909581959F4F0895D5
:1013C0007AE0979F902D879F802D910D112408958D
:1013D0005058192E84D001D06AC0BA17620773071B
:1013E00084079507B1F188F40EF410940B2EBA2FF0
:1013F000A02D062E622F202D072E732F302D082EA4
:10140000842F402D092E952F502DFF275523B9F0FD
:10141000591B49F0573E98F0469537952795A79563
:10142000F0405395C9F776F0BA0F621F731F841FFF
:1014300030F4879577956795B795F040939517FAAF
:101440000F2E0895BF1BBB27BA0B620B730B840BC7
:10145000F6CFDEF670C097FB4ED09F3738F0FEE92E
:10146000F91B982F872F762F6B2F05C061C096959B
:10147000879577956795F150D0F73EF490958095D4
:10148000709561957F4F8F4F9F4F0895E89403C0EB
:1014900097FB0EF4F3DFB62F672F782F892F9EE985
:1014A000002405C09A95BB0F661F771F881F112463
:1014B0009923A1F08823B2F79F3F59F0BB0F48F45E
:1014C00021F4002011F460FF04C06F5F7F4F8F4F45
:1014D0009F4F881F9795879597F9089529C0052EE6
:1014E000092607FA440F551F5F3F79F0AA27A51771
:1014F00008F051E04795880F991F9F3F31F0BB27B7
:10150000B91708F091E0879508959F919F91112454
:101510005CC097FB880F991F9F3F31F0BB27B9171D
:1015200008F091E0879508959F919F9111244DC0F7
:1015300066277727882799270895D1DF01D0B7CF6D
:10154000992339F0552329F09F575F57950F13F4CE
:101550009AF1F1CF91589F3FE1F3629FA12D0F9235
:10156000BB27639FA00DB11DEE27729FA00DB11D7B
:10157000EE1FAF93AA27649FB00DE11D739FB00DBE
:10158000E11DAA1F6627829FB00DE11DA61F5527EA
:10159000749FE00DA11D551F839FE00DA11D561FD7
:1015A000849FA00D511D852F7A2F6E2F1F900F90B5
:1015B00088231AF4939539F408C0000C111CBB1F42
:1015C000661F771F881F012808959FEF80EC0895FC
:0215D000FFCF4B
:1015D2001001554152543020746573740D0A005045
:1015E2006F64616A206E6F776120707265646B6FE1
:1015F200736320282D323535202D20323535293A96
:1016020020000D0A00506F64616A206E6F776120BE
:10161200706F7A79636A653A2000FFFFFFFFFFFF70
:10162200FFFFFFFFFFFFFFFFFFFFFFFFFFFFFFFFC8
:10163200FFFFFFFFFFFF726F6C6A686562605E5CAE
:101642005A58565452504E4D4B49474644434140D6
:101652003F3D3C3B39383736353433323130302E2A
:101662002E2D2C2B2A2A29282827272626252424F2
:101672002423232222222121202020201F1F1E1E5C
:101682001E1E1E1D1D1D1C1C1C1C1C1C1B1B1B1B93
:101692001A1A1A1A1A1A1A1A1919191918181818B4
:1016A20018181818171717171616161616161615CD
:1016B20015151514141414141413131312121212F0
:1016C20012121111111111111010100F0F0F0F0F13
:1016D2000F0E0E0E0D0D0D0D0D0D0D0C0C0C0B0B3A
:1016E2000B0B0B0B0B0B0B0B0B0A0A0A0A0A0A0A4F
:1016F2000A0A0A0A0B0B0B0B0B0B0B0B0B0C0C0D38
:101702000D0D0D0E0F0F0F101111111212131415D2
:0A171200161618181A1A1C1C1E1FC8
:00000001FF
