:100000000C9446000C9465000C9465000C946500FB
:100010000C9465000C9465000C9465000C946500CC
:100020000C9465000C9459030C9465000C946500C5
:100030000C9465000C9465000C9465000C942404E9
:100040000C9465000C9465000C94AC040C940F05A2
:100050000C9465000C9464010C9465000C9465008C
:100060000C9465000C9465000C9465000C9465007C
:100070000C9465000C9465000C94DD040C943C0514
:100080000C9465000C9465000C94650011241FBE4F
:10009000CFEFD0E1DEBFCDBF12E0A0E0B1E0EEECEB
:1000A000FBE100E00BBF02C007900D92AA30B10740
:1000B000D9F713E0AAE0B2E001C01D92A33CB1075A
:1000C000E1F70E9497000C94E50D0C9400008AB3B0
:1000D00088678ABB82B1886182B9A4E6B0E08C915E
:1000E00088608C93E5E6F0E08081877F8083A2982A
:1000F000BF9A8C9184608C938C9180618C9381B336
:10010000806C81BB84B3836084BBBD9A84B38C60F4
:1001100084BBBE9A84B3806384BB159A84B3806C1D
:1001200084BB81B3806381BB109261000895FF920C
:100130000F931F93CF93DF930E9467000E947C046C
:100140000E9483020E94110482B1846482B983B147
:10015000846483B978949798969880E090E020E43E
:100160003CE9F9013197F1F70196883C9105C9F70F
:10017000979A969A83E40E94900588E70E949005DA
:100180008EE10E94900587E00E94900589E00E9420
:100190009005C1E0DFEF07E010E0FF24F3940E9438
:1001A000B8058823E1F30E946E05982F8093B7036A
:1001B0008C3F39F4F0929F038093A503F092B00333
:1001C0000EC080919F03882351F08091B003E82FE7
:1001D000F0E0EB55FC4F90838F5F8093B00320914C
:1001E000B0032430E1F680919F038823C1F280910F
:1001F0000A0290910B02019690930B0280930A02DF
:100200000B973CF010920B0210920A0283B18227E6
:1002100083B98091A80390E09093A4038093A303F3
:100220008091A70390E09093B6038093B5038091EB
:10023000A3039091A403845690409093A4038093C9
:10024000A3038091B5039091B60384569040909398
:10025000B6038093B5038091A3039091A4039C01FE
:100260002C9FC0012D9F900D3C9F900D112464E6A2
:1002700070E00E94870D7093A4036093A3038091A4
:10028000B5039091B6039C012C9FC0012D9F900D4A
:100290003C9F900D112464E670E00E94870D7093DE
:1002A000B6036093B5036091B5037091B603809176
:1002B000A3039091A4030E94930210929F031093B2
:1002C000B9030093B8036BCF1F920F920FB60F9232
:1002D0000BB60F9211242F933F934F935F936F931D
:1002E0007F938F939F93AF93BF93EF93FF938091EF
:1002F0000101823009F443C0833020F4813009F0D9
:10030000E4C007C0833009F470C0843009F0DDC058
:10031000A2C024B135B180910C0290910D02280F3A
:10032000391F30930D0220930C02809100018150FF
:1003300080930001882309F0C8C0379882E0809339
:10034000010180E1809300018DE487B954E0359587
:1003500027955A95E1F7B901882777FD8095982F61
:100360000E94E00A2FE135E84BE650E40E94B6090E
:100370000E94E0077093A2036093A103A0C024B180
:1003800035B180910C0290910D02280F391F3093E6
:100390000D0220930C028091000181508093000196
:1003A000882309F092C0379883E08093010180E1AF
:1003B0008093000184E487B944E0359527954A95F8
:1003C000E1F7B901882777FD8095982F0E94E00A10
:1003D0002FE135E84BE650E40E94B6090E94E007A1
:1003E0007093B2036093B1036AC024B135B18091B8
:1003F0000C0290910D02280F391F30930D022093AB
:100400000C0280910001815080930001882309F043
:100410005CC0379884E08093010180E18093000103
:1004200085E487B994E0359527959A95E1F7B90168
:10043000882777FD8095982F0E94E00A28E03CEA03
:100440004CE25FE30E94B6090E94E0077093C1038B
:100450006093C00334C024B135B180910C029091F7
:100460000D02280F391F30930D0220930C0280914A
:100470000001815080930001882339F5379881E08D
:100480008093010180E18093000189E487B984E0D1
:10049000359527958A95E1F7B901882777FD8095ED
:1004A000982F0E94E00A28E03CEA4CE25FE30E94B9
:1004B000B6090E94E0077093BB036093BA031092E1
:1004C0000D0210920C02379A369AFF91EF91BF916C
:1004D000AF919F918F917F916F915F914F913F91DC
:1004E0002F910F900BBE0F900FBE0F901F9018957D
:1004F0003E9A86B18F6A86B90895369A08953798DC
:100500000895379A0895EBE8F0E08081816F808349
:10051000EAE8F0E0808182608083E5E6F0E08081B7
:10052000877F808308959C01009719F461157105F8
:1005300081F0809165008860809365001216130633
:100540001CF4DB9ADC9805C02115310511F0DB980D
:10055000DC9AC90137FF03C0909581959F4F24E035
:10056000803092071CF080E094E001C090E090930E
:10057000850080938400161617061CF4DD9ADE9819
:1005800005C06115710511F0DD98DE9A77FF03C093
:10059000709561957F4F84E0603078071CF080E0B3
:1005A00094E002C0862F90E09093870080938600AD
:1005B00008956FEF70E08FEF90E00E949302DB9A56
:1005C000DC9ADD9ADE9A0895E5E6F0E08081877F87
:1005D0008083089581EA8FBD82E08EBD089518164C
:1005E00019061CF4A99AA89804C0009711F0A998BC
:1005F000A89A97FF03C0909581959F4F8F3F9105D3
:100600001CF08FEF90E001C090E09BBD8ABD089583
:1006100085B3836085BB8FEF90E09BBD8ABD089555
:10062000181619061CF4AB9AAA9804C0009711F08A
:10063000AB98AA9A97FF03C0909581959F4F8F3FE3
:1006400091051CF08FEF90E001C090E099BD88BD4E
:10065000089585B38C6085BB8FEF90E099BD88BD10
:100660000895EBE8F0E080818860808380E890E086
:1006700090938300809382000895AD9AAC9808957A
:10068000AD98AC9A089585B38F7C85BB089585B3EA
:10069000806385BB0895AF9AAE980895AF98AE9ADF
:1006A000089585B38F7385BB089585B3806C85BB32
:1006B00008951F920F920FB60F9211242F933F931C
:1006C0008F939F93809112028F5F809312028150CB
:1006D00080FF21C08091650082FF06C080910E02DC
:1006E00090910F02019605C080910E0290910F0229
:1006F000019790930F0280930E0220911002309187
:10070000110280910E0290910F022817390719F4F7
:1007100085B58A7F85BD9F918F913F912F910F90D5
:100720000FBE0F901F90189582EC83BD85B5886130
:1007300085BD87B7806887BFE5E6F0E0808180618E
:1007400080830895E5E6F0E080818F7E80830895C0
:10075000E5E6F0E08081806180830895E5E6F0E0E1
:1007600080818B7F80830895E5E6F0E0808184605E
:100770008083089585B58D6185BD089585B58A7F8F
:1007800085BD08959C018091650088608093650017
:10079000309311022093100280910E0290910F026B
:1007A0008217930719F485B58A7F85BD80910E0263
:1007B00090910F02281739076CF4809165008B7FA8
:1007C00080936500809165008F7E8093650085B57C
:1007D0008D6185BD80910E0290910F028217930763
:1007E0006CF4809165008460809365008091650061
:1007F0008F7E8093650085B58D6185BD0895E5E6A2
:10080000F0E08081877F80830895E5E6F0E08081D5
:1008100088608083089520910E0230910F02C901F3
:10082000089589EF81BF87B7826087BF8FE083BF5C
:100830000895909314028093130280911302909173
:100840001402892BD1F708951F920F920FB60F92C1
:100850000BB60F9211242F933F934F935F936F9397
:100860007F938F939F93AF93BF93EF93FF93809169
:10087000150290911602019690931602809315022C
:10088000459744F0109216021092150283B190E43D
:10089000892783B98091B8039091B903892B49F0D6
:1008A0008091B8039091B90301979093B903809315
:1008B000B8038091B8039091B903892B51F460E09B
:1008C00070E080E090E00E9493021092B9031092D1
:1008D000B803FF91EF91BF91AF919F918F917F915D
:1008E0006F915F914F913F912F910F900BBE0F90A1
:1008F0000FBE0F901F90189580E189B988E98AB9D9
:1009000086E8809395001092BC031092A003109289
:10091000BD031092BF031092BE03089580E180933F
:10092000990088E980939A0086E880939D00109250
:10093000C2031092B3031092AF031092B40310924B
:10094000BE0308958AB187708AB90895EAE9F0E094
:1009500080818770808308951F920F920FB60F9247
:100960000BB60F9211248F939F93EF93FF939CB13B
:1009700090931E02E091A003EF5FEF77E0931D02DA
:10098000E093A0038091BC03E81741F48FB7F8947B
:100990001092A0031092BC038FBF04C0F0E0E15E90
:1009A000FD4F9083FF91EF919F918F910F900BBE20
:1009B0000F900FBE0F901F9018951F920F920FB6B9
:1009C0000F920BB60F9211248F939F93EF93FF9387
:1009D00090919C0090931C02E091B303EF5FEF773E
:1009E000E0931B02E093B3038091C203E81741F444
:1009F0008FB7F8941092B3031092C2038FBF04C054
:100A0000F0E0E152FD4F9083FF91EF919F918F9124
:100A10000F900BBE0F900FBE0F901F9018951F9256
:100A20000F920FB60F920BB60F9211248F939F93D4
:100A3000EF93FF939091BF038091BD03981781F0CE
:100A4000E091BD03EF5FEF73E0931A02E093BD0303
:100A5000F0E0E156FD4F8081809319028CB901C00E
:100A60005598FF91EF919F918F910F900BBE0F9032
:100A70000FBE0F901F9018951F920F920FB60F92F6
:100A80000BB60F9211248F939F93EF93FF93909146
:100A9000B4038091AF03981789F0E091AF03EF5F43
:100AA000EF73E0931802E093AF03F0E0E15AFC4FDC
:100AB00080818093170280939C0005C080919A00EA
:100AC0008F7D80939A00FF91EF919F918F910F906E
:100AD0000BBE0F900FBE0F901F9018959091A00322
:100AE0008091BC039817D1F3E091BC03EF5FEF77DF
:100AF000E093BC03F0E0E15EFD4F808108959091AA
:100B0000B3038091C2039817D1F3E091C203EF5F62
:100B1000EF77E093C203F0E0E152FD4F808108954A
:100B2000282F9091BF039F5F9F738091BD039817FB
:100B3000E1F3E92FF0E0E156FD4F20839093BF03EE
:100B4000559A0895282F9091B4039F5F9F738091C9
:100B5000AF039817E1F3E92FF0E0E15AFC4F20834F
:100B60009093B40380919A00806280939A000895D4
:100B70009091A0038091BC0320E0981321E0822F84
:100B800008959091B3038091C20320E0981321E06F
:100B9000822F08959091BF038091BD0320E09813A8
:100BA00021E0822F08959091B4038091AF0320E05B
:100BB000981321E0822F08952FB7F8949091A00305
:100BC0008091BC03981728F09091A0038091BC03FA
:100BD00005C09091A0038091BC039058981B2FBF33
:100BE000892F08952FB7F8949091B3038091C20391
:100BF000981728F09091B3038091C20305C090919B
:100C0000B3038091C2039058981B2FBF892F08957A
:100C10002FB7F8949091BF038091BD03981728F0E7
:100C20009091BF038091BD0305C09091BF03809157
:100C3000BD03905C981B2FBF892F08952FB7F894A0
:100C40009091B4038091AF03981728F09091B4036A
:100C50008091AF0305C09091B4038091AF03905C85
:100C6000981B2FBF892F08958FB7F8941092BF0358
:100C70001092BD038FBF08958FB7F8941092B403FC
:100C80001092AF038FBF08958FB7F8941092A0030E
:100C90001092BC038FBF08958FB7F8941092B303DE
:100CA0001092C2038FBF08959091BF039F5F9F73FF
:100CB0008091BD039817E1F3E92FF0E0E156FD4F75
:100CC00010829093BF03559A9091BF039F5F9F73CB
:100CD0008091BD039817E1F3E92FF0E0E156FD4F55
:100CE0008DE080839093BF03559A9091BF039F5FDF
:100CF0009F738091BD039817E1F3E92FF0E0E1566F
:100D0000FD4F8AE080839093BF03559A0895909198
:100D1000B4039F5F9F738091AF039817E1F3E92FAE
:100D2000F0E0E15AFC4F10829093B40380919A0056
:100D3000806280939A009091B4039F5F9F7380912B
:100D4000AF039817E1F3E92FF0E0E15AFC4F8DE093
:100D500080839093B40380919A00806280939A007C
:100D60009091B4039F5F9F738091AF039817E1F355
:100D7000E92FF0E0E15AFC4F8AE080839093B403BE
:100D800080919A00806280939A000895BC0130E0BF
:100D9000DB01A30FB11D4C912091BF032F5F2F7377
:100DA0008091BD032817E1F3E22FF0E0E156FD4FFB
:100DB00040832093BF03559A8C91882311F03F5FA5
:100DC000E7CF832F0895BC0130E0DB01A30FB11DF5
:100DD0004C912091B4032F5F2F738091AF0328179C
:100DE000E1F3E22FF0E0E15AFC4F40832093B4039B
:100DF00080919A00806280939A008C91882311F0F0
:100E00003F5FE3CF832F0895CF93DF93DC01EC01A5
:100E100020E01EC0AE019091A0038091BC03981702
:100E2000D1F3E091BC03EF5FEF77E093BC03F0E018
:100E3000E15EFD4FE081E883ED3029F0EA3019F002
:100E40002196EE2321F4FA0110822F5F07C02F5F55
:100E5000261700F3A20FB11D11971C92822FDF916C
:100E6000CF910895CF93DF93DC01EC0120E01EC009
:100E7000AE019091B3038091C2039817D1F3E09132
:100E8000C203EF5FEF77E093C203F0E0E152FD4F62
:100E9000E081E883ED3029F0EA3019F02196EE2365
:100EA00021F4FA0110822F5F07C02F5F261700F38D
:100EB000A20FB11D11971C92822FDF91CF9108953F
:100EC000DC0140E050E070E016C0FD01E40FF51FCA
:100ED00030812091BF032F5F2F738091BD032817AE
:100EE000E1F3E22FF0E0E156FD4F30832093BF03A2
:100EF000559A4F5F5F4F4617570738F30895DC0147
:100F000040E050E070E01AC0FD01E40FF51F3081B1
:100F10002091B4032F5F2F738091AF032817E1F363
:100F2000E22FF0E0E15AFC4F30832093B40380912C
:100F30009A00806280939A004F5F5F4F4617570771
:100F400018F30895AC0120E030E070E016C09091F5
:100F5000A0038091BC039817D1F3E091BC03EF5F2D
:100F6000EF77E093BC03DA01A20FB31FF0E0E15E7C
:100F7000FD4F80818C932F5F3F4F2617370738F343
:100F80000895AC0120E030E070E016C09091B3030A
:100F90008091C2039817D1F3E091C203EF5FEF771E
:100FA000E093C203DA01A20FB31FF0E0E152FD4F5C
:100FB00080818C932F5F3F4F2617370738F30895B2
:100FC000EF92FF920F931F937B018C0120E030E0A2
:100FD00040E05FE40E94B00A88238CF020E030E01B
:100FE00040E05FE4C801B7010E9458090E943E0B2F
:100FF0009B01AC01205030404040504806C0C80121
:10100000B7010E943E0B9B01AC01B901CA011F91BF
:101010000F91FF90EF900895A0E0B0E0E2E1F8E0DA
:101020000C94AE0DDC012B01FA019C91923008F476
:1010300039C1EB018881823008F433C1943069F4FE
:10104000843009F02FC111969C91119789819817CE
:1010500009F428C1A2E0B1E025C1843009F421C11E
:101060008230A9F4923009F01DC19A01AD0188E0E7
:10107000EA010990AE01E90109929E018150C1F790
:10108000E201898111969C918923818308C1923064
:1010900009F407C112962D903C901397EB018A81B9
:1010A0009B811496AD90BD90CD90DC901797EC800D
:1010B000FD800E811F819101281B390BB90137FF7B
:1010C00004C066277727621B730B603271050CF032
:1010D00061C0121613066CF537014801062E04C0D4
:1010E00096948794779467940A94D2F721E030E03D
:1010F00040E050E004C0220F331F441F551F6A9583
:10110000D2F721503040404050402E213F21402313
:101110005123211531054105510521F021E030E031
:1011200040E050E079018A01E628F72808291929CA
:101130003CC0232BD1F1260E371E35014601062E69
:1011400004C096948794779467940A94D2F721E028
:1011500030E040E050E004C0220F331F441F551F11
:101160006A95D2F721503040404050402A213B211F
:101170004C215D21211531054105510521F021E06A
:1011800030E040E050E059016A01A628B728C8289D
:10119000D9280BC0821593052CF01C01AA24BB246E
:1011A000650103C0EE24FF24870111969C91D201B2
:1011B00011968C91981709F445C0992339F0A8012C
:1011C00097012A193B094C095D0906C0A601950142
:1011D0002E193F09400B510B57FD08C01182338275
:1011E000228224833583468357831DC081E0818317
:1011F0003382228288279927DC01821B930BA40B60
:10120000B50B84839583A683B7830DC0220F331F4C
:10121000441F551F248335834683578382819381DE
:101220000197938382832481358146815781DA0136
:10123000C9010197A109B1098F5F9F4FAF4FBF430C
:1012400028F30BC0918333822282EA0CFB1C0C1D15
:101250001D1DE482F5820683178383E08083248149
:1012600035814681578157FF1AC0C901AA2797FDCA
:10127000A095BA2F81709070A070B0705695479568
:1012800037952795822B932BA42BB52B848395839D
:10129000A683B78382819381019693838283DF0142
:1012A00001C0D201CD01CDB7DEB7E2E10C94CA0D89
:1012B000A0E2B0E0EEE5F9E00C94BA0D69837A8320
:1012C0008B839C832D833E834F835887E9E0EE2EEA
:1012D000F12CEC0EFD1EB701CE0101960E94B60C5A
:1012E0008E010F5E1F4FB801CE0105960E94B60C0D
:1012F0008A8991E089278A8BAE01475E5F4FB801EA
:10130000C7010E940C080E94E10BA096E6E00C9435
:10131000D60DA0E2B0E0EFE8F9E00C94BA0D6983D5
:101320007A838B839C832D833E834F835887F9E098
:10133000EF2EF12CEC0EFD1EB701CE0101960E949E
:10134000B60C8E010F5E1F4FB801CE0105960E94AC
:10135000B60CAE01475E5F4FB801C7010E940C0892
:101360000E94E10BA096E6E00C94D60DA0E2B0E05E
:10137000ECEBF9E00C94AE0D69837A838B839C834C
:101380002D833E834F835887BE01675F7F4FCE0119
:1013900001960E94B60CBE016F5E7F4FCE0105968E
:1013A0000E94B60C9985923088F089898230C8F005
:1013B000943019F4823051F404C0843029F492300E
:1013C00081F482E091E0C6C0923049F420E09A8531
:1013D0008A89981321E02A87CE010996BBC0823002
:1013E00049F420E09A858A89981321E02A8BCE015E
:1013F0004196B0C02D843E844F8458886D887E8885
:101400008F88988CEE24FF248701AA24BB246501D1
:1014100040E050E060E070E0E0E0F0E0C1018170A9
:101420009070892BE9F0E60CF71C081D191D9A0134
:10143000AB012A0D3B1D4C1D5D1D80E090E0A0E03E
:10144000B0E0E614F7040805190520F481E090E007
:10145000A0E0B0E0BA01A901480F591F6A1F7B1F25
:10146000AA0CBB1CCC1CDD1C97FE08C081E090E0E0
:10147000A0E0B0E0A82AB92ACA2ADB2A3196E032D5
:10148000F10549F0660C771C881C991C569447940A
:1014900037942794C3CFFA85EA892B893C898B85B9
:1014A0009C85280F391F2E5F3F4F17C0CA018170DE
:1014B0009070892B61F016950795F794E79480E07A
:1014C00090E0A0E0B0E8E82AF92A0A2B1B2B7695D9
:1014D0006795579547952F5F3F4F77FDE7CF0CC036
:1014E000440F551F661F771F17FD4160EE0CFF1C50
:1014F000001F111F21503040403090E0590790E00C
:10150000690790E4790760F32B8F3C8FDB01CA01F8
:101510008F779070A070B07080349105A105B105EF
:1015200061F447FD0AC0E114F1040105110529F039
:10153000405C5F4F6F4F7F4F40781A8EFE1711F05F
:1015400081E08A8F4D8F5E8F6F8F78A383E0898FC4
:10155000CE0149960E94E10BA096E2E10C94CA0DDF
:10156000A8E1B0E0E6EBFAE00C94BA0D69837A8367
:101570008B839C832D833E834F83588789E0E82E9D
:10158000F12CEC0EFD1EB701CE0101960E94B60CA7
:101590008E010F5E1F4FB801CE0105960E94B60C5A
:1015A0008985823040F08989823028F0B801C701EE
:1015B0000E942E0D01C08FEF6896E6E00C94D60DC8
:1015C000A8E0B0E0E6EEFAE00C94B70D9B01AC01A8
:1015D00083E08983DA01C9018827B7FD83959927BC
:1015E000AA27BB27B82E211531054105510519F44D
:1015F00082E089833AC08823A9F0203080E0380750
:1016000080E0480780E8580729F460E070E080E057
:101610009FEC30C0EE24FF248701E21AF30A040B8A
:10162000150B02C079018A018EE1C82ED12CDC8213
:10163000CB82ED82FE820F831887C801B7010E941A
:10164000920B01971816190684F4082E04C0EE0CAC
:10165000FF1C001F111F0A94D2F7ED82FE820F8338
:101660001887C81AD90ADC82CB82BA82CE010196C9
:101670000E94E10B2896E9E00C94D30DACE0B0E0B9
:10168000E4E4FBE00C94BE0D69837A838B839C8336
:10169000BE016B5F7F4FCE0101960E94B60C8D811B
:1016A000823061F1823050F1843021F48E818823C0
:1016B00051F12EC02F81388537FD20C06E812F312A
:1016C00031051CF06623F9F023C08EE190E0821B07
:1016D000930B29853A854B855C8504C056954795C3
:1016E000379527958A95D2F76623B1F050954095A6
:1016F000309521953F4F4F4F5F4F0EC020E030E0B7
:1017000040E050E009C02FEF3FEF4FEF5FE704C02C
:1017100020E030E040E050E8B901CA012C96E2E058
:101720000C94DA0DEF92FF920F931F937B018C01C3
:1017300080E0E81680E0F80681E0080780E01807FE
:1017400088F48FEFE816F1040105110531F028F057
:1017500088E090E0A0E0B0E017C080E090E0A0E07A
:10176000B0E012C080E0E81680E0F80680E00807EC
:1017700081E0180728F088E190E0A0E0B0E004C024
:1017800080E190E0A0E0B0E020E230E040E050E016
:10179000281B390B4A0B5B0B04C016950795F79471
:1017A000E7948A95D2F7F701E65FFE4F8081281B08
:1017B000310941095109C9011F910F91FF90EF9023
:1017C0000895DF92EF92FF920F931F93FC01E48044
:1017D000F58006811781D1808081823048F480E0D5
:1017E00090E0A0E1B0E0E82AF92A0A2B1B2BA5C063
:1017F000843009F49FC0823021F4EE24FF24870155
:1018000005C0E114F1040105110519F4E0E0F0E070
:1018100096C0628173819FEF623879070CF05BC0DC
:1018200022E83FEF261B370B2A3131052CF020E050
:1018300030E040E050E02AC0B801A701022E04C009
:1018400076956795579547950A94D2F781E090E091
:10185000A0E0B0E004C0880F991FAA1FBB1F2A9503
:10186000D2F70197A109B1098E219F21A023B123AD
:101870000097A105B10521F081E090E0A0E0B0E083
:101880009A01AB01282B392B4A2B5B2BDA01C901BA
:101890008F779070A070B07080349105A105B1056C
:1018A00039F427FF09C0205C3F4F4F4F5F4F04C002
:1018B000215C3F4F4F4F5F4FE0E0F0E02030A0E071
:1018C0003A07A0E04A07A0E45A0710F0E1E0F0E090
:1018D00079018A0127C06038710564F5FB01E15880
:1018E000FF4FD801C7018F779070A070B07080341F
:1018F0009105A105B10539F4E7FE0DC080E490E043
:10190000A0E0B0E004C08FE390E0A0E0B0E0E80E1B
:10191000F91E0A1F1B1F17FF05C016950795F794A0
:10192000E794319687E016950795F794E7948A95A2
:10193000D1F705C0EE24FF248701EFEFF0E06E2F12
:10194000679566276795902F9F77D794DD24D79466
:101950008E2F8695492F462B582F5D29B701CA0136
:101960001F910F91FF90EF90DF900895FC01DB0134
:10197000408151812281622F6F7770E0221F2227E0
:10198000221F9381892F880F822B282F30E0991FE7
:101990009927991F11969C93119721153105A9F547
:1019A000411551056105710511F482E037C082E8E7
:1019B0009FEF13969C938E9312979A01AB0167E069
:1019C000220F331F441F551F6A95D1F783E08C9374
:1019D0000DC0220F331F441F551F12968D919C91ED
:1019E0001397019713969C938E931297203080E063
:1019F000380780E0480780E4580758F314962D9381
:101A00003D934D935C93179708952F3F310579F4DB
:101A1000411551056105710519F484E08C93089511
:101A200064FF03C081E08C9312C01C9210C02F573A
:101A3000304013963C932E93129783E08C9387E06B
:101A4000440F551F661F771F8A95D1F7706414964F
:101A50004D935D936D937C93179708951F93DC01CD
:101A6000FB019C91923008F447C08081823008F4D9
:101A700043C0943051F411961C91843099F58181C2
:101A8000682F70E0611B71093FC0843021F09230F3
:101A900031F48230B9F18181882389F12DC011960A
:101AA0001C9111978230F1F081811817D9F41296A8
:101AB0002D913C911397828193818217930794F023
:101AC00028173907BCF014968D919D910D90BC910B
:101AD000A02D2481358146815781281739074A076F
:101AE0005B0718F4112341F00AC082179307A4077B
:101AF000B50740F4112319F061E070E005C06FEF05
:101B00007FEF02C060E070E0CB011F91089597FB6A
:101B1000092E07260AD077FD04D00CD006D000206D
:101B20001AF4709561957F4F0895F6F79095819519
:101B30009F4F0895AA1BBB1B51E107C0AA1FBB1FE3
:101B4000A617B70710F0A61BB70B881F991F5A9549
:101B5000A9F780959095BC01CD0108952F923F92F1
:101B60004F925F926F927F928F929F92AF92BF92AD
:101B7000CF92DF92EF92FF920F931F93CF93DF9359
:101B8000CDB7DEB7CA1BDB0B0FB6F894DEBF0FBEB6
:101B9000CDBF09942A88398848885F846E847D8403
:101BA0008C849B84AA84B984C884DF80EE80FD8005
:101BB0000C811B81AA81B981CE0FD11D0FB6F8947B
:0E1BC000DEBF0FBECDBFED010895F894FFCF3C
:101BCE0010010000000000000000000102020303EB
:101BDE0003030404040404040404050505050505B3
:101BEE000505050505050505050506060606060691
:101BFE000606060606060606060606060606060677
:101C0E000606060606060606060607070707070760
:101C1E000707070707070707070707070707070746
:101C2E000707070707070707070707070707070736
:101C3E000707070707070707070707070707070726
:101C4E000707070707070707070708080808080810
:101C5E0008080808080808080808080808080808F6
:101C6E0008080808080808080808080808080808E6
:101C7E0008080808080808080808080808080808D6
:101C8E0008080808080808080808080808080808C6
:101C9E0008080808080808080808080808080808B6
:101CAE0008080808080808080808080808080808A6
:101CBE000808080808080808080808080808080896
:0A1CCE0008080808080808080808BC
:00000001FF
