:100000000C9446000C9465000C9465000C946500FB
:100010000C9465000C9465000C9465000C946500CC
:100020000C9465000C949A070C9465000C94650080
:100030000C9465000C9465000C9465000C942307E7
:100040000C9465000C9465000C9418060C947F03C6
:100050000C9465000C9472000C9465000C9465007F
:100060000C9465000C9465000C9465000C9465007C
:100070000C9465000C9465000C94EA050C94A8039C
:100080000C9465000C9465000C94650011241FBE4F
:10009000CFEFD0E1DEBFCDBF11E0A0E0B1E0E8E0FE
:1000A000F2E100E00BBF02C007900D92A835B10746
:1000B000D9F712E0A8E5B1E001C01D92AC3FB1074D
:1000C000E1F70E94AE010C9403090C9400003E9AE3
:1000D00086B18F6A86B90895369A0895379808953B
:1000E000379A08951F920F920FB60F9211242F93F3
:1000F0003F934F935F936F937F938F939F93AF93B0
:10010000BF93EF93FF9380910101823009F442C0C5
:10011000833020F4813009F0E0C007C0833009F457
:100120006EC0843009F0D9C09FC064B175B18091B0
:10013000580190915901680F791F7093590160938C
:10014000580180910001815080930001882309F0BB
:10015000C4C0379882E08093010180E18093000160
:100160008DE487B934E0759567953A95E1F788276E
:1001700077FD8095982F0E9463082FE135E84BE6C4
:1001800050E40E94B8080E9446087093ED02609304
:10019000EC029DC064B175B18091580190915901F4
:1001A000680F791F70935901609358018091000185
:1001B000815080930001882309F08FC0379883E035
:1001C0008093010180E18093000184E487B924E0F9
:1001D000759567952A95E1F7882777FD8095982F83
:1001E0000E9463082FE135E84BE650E40E94B8080E
:1001F0000E9446087093F0026093EF0268C064B1F9
:1002000075B18091580190915901680F791F7093D1
:100210005901609358018091000181508093000141
:10022000882309F05AC0379884E08093010180E167
:100230008093000185E487B994E0759567959A9558
:10024000E1F7882777FD8095982F0E94630828E0C2
:100250003CEA4CE25FE30E94B8080E9446087093B3
:10026000FA026093F90233C064B175B1809158010C
:1002700090915901680F791F70935901609358014B
:1002800080910001815080930001882331F53798D7
:1002900081E08093010180E18093000189E487B9C6
:1002A00084E0759567958A95E1F7882777FD8095B5
:1002B000982F0E94630828E03CEA4CE25FE30E942A
:1002C000B8080E9446087093F4026093F3021092FB
:1002D000590110925801379A369AFF91EF91BF91C8
:1002E000AF919F918F917F916F915F914F913F91CE
:1002F0002F910F900FBE0F901F9018958AB38867AB
:100300008ABB82B1886182B9A4E6B0E08C91886032
:100310008C93E5E6F0E08081877F8083A298BF9A86
:100320008C9184608C938C9180618C9381B3806C70
:1003300081BB84B3836084BBBD9A84B38C6084BB6F
:10034000BE9A84B3806384BB159A84B3806C84BBEB
:1003500081B3806381BB1092610008950F931F9356
:10036000CF93DF93CDB7DEB728970FB6F894DEBFF3
:100370000FBECDBF0E947E010E944F030E94610309
:100380000E9456070E9445060E94B0060E94FB0686
:100390000E94D5070E94670078940E946C0082E05A
:1003A00091E00E94EA048FE091E00E940D05969A88
:1003B0000E942E04882309F4B6C00E94E8038B36FD
:1003C00009F492C08C36C8F4863609F4A9C0873681
:1003D00050F4843609F44EC0853608F048C08236A1
:1003E00009F0A1C03EC0883609F488C0883608F4F8
:1003F00080C08A3609F097C05DC0833709F440C0D9
:10040000843748F48F3609F488C08037E1F18C36A0
:1004100009F089C029C0863761F0873720F4843716
:1004200009F081C070C0873741F1893709F07BC07E
:100430006FC08CE191E00E940D058E010F5F1F4F90
:1004400068E0C8010E945D05C8010E9420088C0177
:100450008FE391E00E940D05B801C8010E94550686
:1004600062C00E949F065FC00E94AA065CC00E94F4
:10047000690759C00E946F0756C00E94810753C088
:100480000E94850750C082E491E00E940D058E0114
:100490000F5F1F4F68E0C8010E945D05C8010E9400
:1004A00020088C018FE391E00E940D05C8010E9495
:1004B000E30739C08CE191E00E940D058E010F5FCA
:1004C0001F4F68E0C8010E945D05C8010E94200816
:1004D0008C018FE391E00E940D05C8010E94B506D2
:1004E000C8010E94D8061FC00E94D0060E94F306D1
:1004F0001AC00E940A070E94180715C00E94070729
:100500000E94150710C00E940D070E941B070BC018
:100510000E9411070E941F0706C082B3806302C0B9
:1005200082B38F7C82BB0E942204882309F440CFCF
:100530000E94D6038B3609F492C08C36C8F48636F6
:1005400009F4A9C0873650F4843609F44EC08536C4
:1005500008F048C0823609F02BCF3EC0883609F437
:1005600088C0883608F480C08A3609F021CF5DC083
:10057000833709F440C0843748F48F3609F488C0C3
:100580008037E1F18C3609F013CF29C0863761F04E
:10059000873720F4843709F00BCF70C0873741F1DB
:1005A000893709F005CF6FC08CE191E00E94EA0421
:1005B0008E010F5F1F4F68E0C8010E943005C8011F
:1005C0000E9420088C018FE391E00E94EA04B801A8
:1005D000C8010E945506ECCE0E949F06E9CE0E94FB
:1005E000AA06E6CE0E946907E3CE0E946F07E0CE1E
:1005F0000E948107DDCE0E948507DACE82E491E079
:100600000E94EA048E010F5F1F4F68E0C8010E943C
:100610003005C8010E9420088C018FE391E00E9400
:10062000EA04C8010E94E307C3CE8CE191E00E9476
:10063000EA048E010F5F1F4F68E0C8010E94300579
:10064000C8010E9420088C018FE391E00E94EA0417
:10065000C8010E94B506C8010E94D806A9CE0E9412
:10066000D0060E94F306A4CE0E940A070E94180733
:100670009FCE0E9407070E9415079ACE0E940D0781
:100680000E941B0795CE0E9411070E941F0790CE63
:1006900082B3806302C082B38F7C82BB89CE80E14B
:1006A00089B988E98AB986E8809395001092F502A5
:1006B0001092EB021092F6021092F8021092F702DA
:1006C000089580E18093990088E980939A0086E8F4
:1006D00080939D001092FB021092F1021092EE02A4
:1006E0001092F2021092F70208958AB187708AB9C7
:1006F0000895EAE9F0E080818770808308951F9271
:100700000F920FB60F9211248F939F93EF93FF9345
:100710009091F8028091F602981781F0E091F6022C
:10072000EF5FEF73E0935D01E093F602FF27EE5178
:10073000FE4F808180935C018CB901C05598FF9178
:10074000EF919F918F910F900FBE0F901F90189572
:100750001F920F920FB60F9211248F939F93EF93D6
:10076000FF939091F2028091EE02981789F0E09148
:10077000EE02EF5FEF73E0935B01E093EE02FF2781
:10078000EE55FD4F808180935A0180939C0005C0F7
:1007900080919A008F7D80939A00FF91EF919F91B5
:1007A0008F910F900FBE0F901F9018959091EB02B4
:1007B0008091F5029817D1F3E091F502EF5FEF77A2
:1007C000E093F502FF27EE59FE4F808199270895A7
:1007D0009091F1028091FB029817D1F3E091FB0216
:1007E000EF5FEF77E093FB02FF27EE5DFD4F808127
:1007F00099270895282F9091F8029F5F9F73809109
:10080000F6029817E1F3E92FFF27EE51FE4F208300
:100810009093F802559A0895282F9091F2029F5FC5
:100820009F738091EE029817E1F3E92FFF27EE55B1
:10083000FD4F20839093F20280919A008062809312
:100840009A0008959091EB028091F50220E030E04B
:10085000981711F021E030E0C90108959091F1025C
:100860008091FB0220E030E0981711F021E030E0A9
:10087000C90108959091F8028091F60220E030E0DD
:10088000981711F021E030E0C90108959091F2022B
:100890008091EE0220E030E0981711F021E030E086
:1008A000C90108952FB7F8949091EB028091F50259
:1008B000981740F08091EB029091F5022FBF891BB1
:1008C000992708958091EB029091F5022FBF891B23
:1008D0008058992708952FB7F8949091F10280914C
:1008E000FB02981740F08091F1029091FB022FBF1C
:1008F000891B992708958091F1029091FB022FBFE7
:10090000891B8058992708952FB7F8949091F80281
:100910008091F602981740F08091F8029091F602CB
:100920002FBF891B992708958091F8029091F602B4
:100930002FBF891B805C992708952FB7F894909159
:10094000F2028091EE02981740F08091F2029091AD
:10095000EE022FBF891B992708958091F202909192
:10096000EE022FBF891B805C992708958FB7F894FA
:100970001092F8021092F6028FBF08958FB7F89484
:100980001092F2021092EE028FBF08958FB7F89482
:100990001092EB021092F5028FBF08958FB7F89472
:1009A0001092F1021092FB028FBF089580E00E9426
:1009B000FA038DE00E94FA038AE00E94FA03089588
:1009C00080E00E940C048DE00E940C048AE00E94EA
:1009D0000C040895CF92DF92EF92FF920F931F9332
:1009E000CF93DF936C01C0E0D0E0EC2EFF248601B2
:1009F0000E0D1F1DF80180810E94FA032196F80157
:100A00008081882391F7C701DF91CF911F910F91CA
:100A1000FF90EF90DF90CF900895CF92DF92EF920A
:100A2000FF920F931F93CF93DF936C01C0E0D0E050
:100A3000EC2EFF2486010E0D1F1DF80180810E94FF
:100A40000C042196F8018081882391F7C701DF917A
:100A5000CF911F910F91FF90EF90DF90CF9008956D
:100A6000EF92FF920F931F93CF93DF93EC01062F2A
:100A700010E014C07E01E80EF91E0E94D603F701B3
:100A800080838D3021F08A3011F0882331F4F70112
:100A900010821F5F812F992709C01F5F812F99271F
:100AA000101741F7C80FD91F21971882DF91CF91F6
:100AB0001F910F91FF90EF900895EF92FF920F9387
:100AC0001F93CF93DF93EC01062F10E014C07E013B
:100AD000E80EF91E0E94E803F70180838D3021F0B3
:100AE0008A3011F0882331F4F70110821F5F812FC3
:100AF000992709C01F5F812F9927101741F7C80F49
:100B0000D91F21971882DF91CF911F910F91FF90EC
:100B1000EF900895FF920F931F93CF93DF938C0173
:100B2000F62EEC0103C089910E94FA03C8018F0DD3
:100B3000911DC817D907B9F7DF91CF911F910F9178
:100B4000FF900895FF920F931F93CF93DF938C0133
:100B5000F62EEC0103C089910E940C04C8018F0D90
:100B6000911DC817D907B9F7DF91CF911F910F9148
:100B7000FF900895FF920F931F93CF93DF938C0103
:100B8000F62EEC0103C00E94D6038993C8018F0D95
:100B9000911DC817D907B9F7DF91CF911F910F9118
:100BA000FF900895FF920F931F93CF93DF938C01D3
:100BB000F62EEC0103C00E94E8038993C8018F0D53
:100BC000911DC817D907B9F7DF91CF911F910F91E8
:100BD000FF9008951F920F920FB60F9211248F93DA
:100BE0009F93EF93FF9390919C0090935F01E0910E
:100BF000F102EF5FEF77E0935E01E093F102809105
:100C0000FB02E81741F48FB7F8941092F1021092AA
:100C1000FB028FBF04C0FF27EE5DFD4F9083FF9165
:100C2000EF919F918F910F900FBE0F901F9018958D
:100C30001F920F920FB60F9211248F939F93EF93F1
:100C4000FF939CB190936101E091EB02EF5FEF772E
:100C5000E0936001E093EB028091F502E81741F424
:100C60008FB7F8941092EB021092F5028FBF04C078
:100C7000FF27EE59FE4F9083FF91EF919F918F9147
:100C80000F900FBE0F901F901895EBE8F0E0808159
:100C9000816F8083EAE8F0E0808182608083E5E60E
:100CA000F0E08081877F808308959C01892B21F467
:100CB00061157105F1F523C080916500886080930E
:100CC0006500121613061CF4DB9ADC9802C0DB9850
:100CD000DC9A161617061CF4DD9ADE9805C061151D
:100CE000710569F0DD98DE9A77FF03C07095619514
:100CF0007F4F6F3F71052CF08FEF90E004C060E0F4
:100D000070E0862F99279093870080938600C90111
:100D100037FF03C0909581959F4F8F3F91051CF041
:100D20008FEF90E001C09927909385008093840015
:100D3000089580916500886080936500CACF6FEF49
:100D400070E08FEF90E00E945506DB9ADC9ADD9A06
:100D5000DE9A0895E5E6F0E08081877F808308953C
:100D600081EA8FBD82E08EBD0895181619061CF425
:100D7000A99AA89804C0009769F0A998A89A97FF23
:100D800003C0909581959F4F8F3F91052CF08FEF79
:100D900090E003C080E090E099279BBD8ABD089554
:100DA00085B3836085BB8FEF90E09BBD8ABD0895BE
:100DB000181619061CF4AB9AAA9804C0009769F09B
:100DC000AB98AA9A97FF03C0909581959F4F8F3F4C
:100DD00091052CF08FEF90E003C080E090E0992720
:100DE00099BD88BD089585B38C6085BB8FEF90E079
:100DF00099BD88BD0895EBE8F0E08081886080832C
:100E000080E890E090938300809382000895AD9AEB
:100E1000AC980895AD98AC9A089585B38F7C85BB46
:100E2000089585B3806385BB0895AF9AAE98089501
:100E3000AF98AE9A089585B38F7385BB089585B337
:100E4000806C85BB08951F920F920FB60F921124EC
:100E50002F938F939F938091E2029091E302892BCD
:100E600049F08091E2029091E30201979093E302AE
:100E70008093E2028091E4029091E50201969093C2
:100E8000E5028093E4020197845F914038F082B3D9
:100E9000805882BB1092E5021092E4029F918F91DC
:100EA0002F910F900FBE0F901F90189589EF81BF63
:100EB00087B7826087BF8CE083BF08959093E30279
:100EC0008093E2028091E2029091E302892BD1F7B4
:100ED0000895E5E6F0E080818F7E80830895E5E661
:100EE000F0E08081806180830895E5E6F0E0808114
:100EF0008B7F80830895E5E6F0E0808184608083C5
:100F0000089585B58D6185BD089585B58A7F85BDB8
:100F10000895E5E6F0E08081877F80830895E5E627
:100F2000F0E080818860808308958091E60290914E
:100F3000E70208951F920F920FB60F9211242F937C
:100F40003F938F939F938091EA028F5F8093EA0291
:100F5000815080FF21C08091650082FF06C0809192
:100F6000E6029091E702019605C08091E602909119
:100F7000E70201979093E7028093E6022091E8024E
:100F80003091E9028091E6029091E7022817390733
:100F900019F485B58A7F85BD9F918F913F912F91DF
:100FA0000F900FBE0F901F90189582EC83BD85B5F2
:100FB000886185BD87B7806887BFE5E6F0E08081FE
:100FC0008061808308959C01809165008860809392
:100FD00065003093E9022093E8028091E602909147
:100FE000E7028217930719F485B58A7F85BD809142
:100FF000E6029091E702281739076CF480916500AA
:101000008B7F80936500809165008F7E8093650063
:1010100085B58D6185BD8091E6029091E7028217CA
:1010200093076CF4809165008460809365008091E3
:1010300065008F7E8093650085B58D6185BD0895BF
:10104000FC0188279927E89421912032E9F329307F
:1010500010F02E30C8F32B3241F02D3239F4689461
:1010600004C00E943E08820F911D219120532A3016
:10107000C0F31EF4909581959F4F08957AE0979F55
:10108000902D879F802D910D1124089597FB4ED0B0
:101090009F3738F0FEE9F91B982F872F762F6B2F9B
:1010A00005C061C09695879577956795F150D0F703
:1010B0003EF490958095709561957F4F8F4F9F4F2F
:1010C0000895E89403C097FB0EF4F3DFB62F672F63
:1010D000782F892F9EE9002405C09A95BB0F661FC3
:1010E000771F881F11249923A1F08823B2F79F3F0F
:1010F00059F0BB0F48F421F4002011F460FF04C044
:101100006F5F7F4F8F4F9F4F881F9795879597F9F8
:10111000089529C0052E092607FA440F551F5F3F81
:1011200079F0AA27A51708F051E04795880F991F75
:101130009F3F31F0BB27B91708F091E087950895DC
:101140009F919F9111245CC097FB880F991F9F3F2F
:1011500031F0BB27B91708F091E0879508959F916A
:101160009F9111244DC066277727882799270895D6
:10117000D1DF01D0B7CF992339F0552329F09F57FC
:101180005F57950F13F49AF1F1CF91589F3FE1F318
:10119000629FA12D0F92BB27639FA00DB11DEE276B
:1011A000729FA00DB11DEE1FAF93AA27649FB00DD3
:1011B000E11D739FB00DE11DAA1F6627829FB00D30
:1011C000E11DA61F5527749FE00DA11D551F839F8C
:1011D000E00DA11D561F849FA00D511D852F7A2F54
:1011E0006E2F1F900F9088231AF4939539F408C03E
:1011F000000C111CBB1F661F771F881F0128089554
:081200009FEF80EC0895FFCF81
:101208001001554152543020746573740D0A00550D
:101218004152543120746573740D0A00506F646133
:101228006A206E6F776120707265646B6F736320DC
:10123800282D323535202D20323535293A20000D1C
:101248000A00506F64616A206E6F776120706F7A50
:0812580079636A653A20000089
:00000001FF
