:100000000C9446000C9465000C9465000C946500FB
:100010000C9465000C9465000C9465000C946500CC
:100020000C9438080C945D080C9465000C946500E1
:100030000C9465000C9465000C9465000C945E07AC
:100040000C9465000C9465000C9453060C94BA0350
:100050000C9465000C9472000C9465000C9465007F
:100060000C9465000C9465000C9465000C9465007C
:100070000C9465000C9465000C9425060C94E30325
:100080000C9465000C9465000C94650011241FBE4F
:10009000CFEFD0E1DEBFCDBF12E0A0E0B1E0EEE5F2
:1000A000F4E100E00BBF02C007900D92AC35B10740
:1000B000D9F715E0ACE5B2E001C01D92AD30B10753
:1000C000E1F70E9403020C942E0A0C9400003E9A61
:1000D00086B18F6A86B90895369A0895379808953B
:1000E000379A08951F920F920FB60F9211242F93F3
:1000F0003F934F935F936F937F938F939F93AF93B0
:10010000BF93EF93FF9380910101833009F47CC08A
:10011000843030F4813071F0823009F030C13FC05A
:10012000853009F4DBC0853008F4A3C0863009F0BF
:1001300026C1FAC064B175B180915C0290915D02F4
:10014000680F791F70935D0260935C0280910001DB
:10015000815080930001882309F011C1379882E013
:100160008093010180E18093000183E487B954E02A
:10017000759567955A95E1F7882777FD8095982FB3
:100180000E947A0920E030ED4FE451E40E94CF094B
:100190000E945D097093EE036093ED03EAC064B1C1
:1001A00075B180915C0290915D02680F791F709328
:1001B0005D0260935C028091000181508093000198
:1001C000882309F0DCC0379883E08093010180E147
:1001D0008093000184E487B944E0759567954A955A
:1001E000E1F7882777FD8095982F0E947A0920E013
:1001F00030ED4FE451E40E94CF090E945D097093F5
:10020000F4036093F303B5C064B175B180915C02EF
:1002100090915D02680F791F70935D0260935C029C
:1002200080910001815080930001882309F0A7C0CC
:10023000379884E08093010180E18093000185E498
:1002400087B934E0759567953A95E1F7882777FD8A
:100250008095982F0E947A0928E03CEA4CE25FE3FF
:100260000E94CF090E945D09709305046093040405
:1002700080C064B175B180915C0290915D02680F9D
:10028000791F70935D0260935C0280910001815040
:1002900080930001882309F072C0379885E080932D
:1002A000010180E18093000186E487B924E075951F
:1002B00067952A95E1F7882777FD8095982F0E940A
:1002C0007A0928E03CEA4CE25FE30E94CF090E94F1
:1002D0005D097093FC036093FB034BC024B135B1FF
:1002E00080915C0290915D02280F391F30935D026E
:1002F00020935C028091000181508093000188234B
:10030000F1F5379886E08093010180E18093000148
:1003100087E487B994E0359527959A95E1F730936E
:100320000A042093090425C024B135B180915C02F0
:1003300090915D02280F391F30935D0220935C027B
:10034000809100018150809300018823C1F4379887
:1003500081E08093010180E18093000181E487B90D
:1003600084E0359527958A95E1F73093F80320933B
:10037000F70310925D0210925C02379A369AFF9151
:10038000EF91BF91AF919F918F917F916F915F910D
:100390004F913F912F910F900FBE0F901F90189586
:1003A0008AB388678ABB82B1886182B9A4E6B0E06B
:1003B0008C9188608C93E5E6F0E08081877F808374
:1003C000A298BF9A8C9184608C938C9180618C935D
:1003D00081B3806C81BB82B1846482B984B3836051
:1003E00084BBBD9A84B38C6084BBBE9A84B38063A3
:1003F00084BB159A84B3806C84BB81B3806381BB5A
:10040000109261000895FF920F931F93CF93DF9393
:10041000CDB7DEB7A8970FB6F894DEBF0FBECDBF3D
:100420000E94D0010E948A030E94A4070E948006B5
:100430000E9467000E946C0080E090E00197F1F755
:10044000789482E091E00E942505969A1E98FF24F8
:100450000E945D04882309F4C5C00E9411048B36F4
:1004600009F4A1C08C36C8F4863609F4B8C08736C2
:1004700050F4843609F449C0853608F043C082360A
:1004800009F0B0C039C0883609F497C0883608F43E
:100490008FC08A3609F0A6C06CC08337C9F1843793
:1004A00050F48F3609F498C0803709F44AC08C366E
:1004B00009F098C024C0863739F0893709F487C01D
:1004C000843709F08FC07EC08FE091E00E9425053F
:1004D0008E010F5F1F4F68E0C8010E946B05C801C5
:1004E0000E9406098C0182E391E00E942505B80173
:1004F000C8010E94900676C00E94DA0673C00E946E
:10050000E50670C00E94D9076DC00E94DF076AC06F
:100510008091F1039091F203892B31F488EC90E003
:1005200090930804809307048091F1039091F20363
:10053000883C910509F056C01092080410920704F7
:1005400051C085E391E00E9425058E010F5F1F4F8A
:1005500068E0C8010E946B05C8010E9406098C0171
:1005600082E391E00E94250510930804009307049C
:1005700039C08FE091E00E9425058E010F5F1F4F6B
:1005800068E0C8010E946B05C8010E9406098C0141
:1005900082E391E00E942505C8010E94F006C8018F
:1005A0000E9413071FC00E940B070E942E071AC04B
:1005B0000E9445070E94530715C00E9442070E94EF
:1005C000500710C00E9448070E9456070BC00E94A7
:1005D0004C070E945A0706C082B3806302C082B3F0
:1005E0008F7C82BB8091EA039091EB03892B09F009
:1005F0002FCF8AE491E00E9425058E01075F1F4FEF
:100600008091ED039091EE034AE050E0B8010E9422
:100610002409C8010E94250581E591E00E94250575
:1006200084E591E00E9425058091F3039091F40305
:100630004AE050E0B8010E942409C8010E94250543
:1006400081E591E00E9425058091ED039091EE03F4
:100650008159914038F48091F3039091F4038159CA
:100660009140A8F1F39483E08F1508F042C01A9AE4
:100670008091ED039091EE038159914038F480917F
:10068000F3039091F4038159914090F18091F90323
:100690009091FA03181619062CF466E57FEF86E5AB
:1006A0009FEF04C06AEA70E08AEA90E00E94900638
:1006B00080E293E00E94AC0761E07FEF8FEF90E073
:1006C0000E9490068CE494E00E94AC0711C01A9836
:1006D00084E690E09093EB038093EA038FEF90E041
:1006E0009093FE038093FD039093FA038093F903A4
:1006F000FF246091F9037091FA038091FD039091BA
:10070000FE030E94900684E690E09093EB038093B2
:10071000EA039ECE80E189B988E98AB986E88093A8
:1007200095001092FF031092EC03109200041092B7
:10073000020410920104089580E18093990088E9F1
:1007400080939A0086E880939D0010920604109290
:10075000F5031092EF031092F6031092010408952E
:100760008AB187708AB90895EAE9F0E080818770DC
:10077000808308951F920F920FB60F9211248F93CA
:100780009F93EF93FF939091020480910004981738
:1007900081F0E0910004EF5FEF73E0936102E0937A
:1007A0000004FF27EA51FD4F8081809360028CB9DD
:1007B00001C05598FF91EF919F918F910F900FBEBF
:1007C0000F901F9018951F920F920FB60F92112441
:1007D0008F939F93EF93FF939091F6038091EF0394
:1007E000981789F0E091EF03EF5FEF73E0935F02FA
:1007F000E093EF03FF27EA55FC4F808180935E0270
:1008000080939C0005C080919A008F7D80939A0010
:10081000FF91EF919F918F910F900FBE0F901F90BE
:1008200018959091EC038091FF039817D1F3E09114
:10083000FF03EF5FEF77E093FF03FF27EA59FD4FD8
:100840008081992708959091F50380910604981767
:10085000D1F3E0910604EF5FEF77E0930604FF2702
:10086000EA5DFC4F808199270895282F909102041A
:100870009F5F9F73809100049817E1F3E92FFF2792
:10088000EA51FD4F208390930204559A0895282F32
:100890009091F6039F5F9F738091EF039817E1F3A8
:1008A000E92FFF27EA55FC4F20839093F6038091B0
:1008B0009A00806280939A0008959091EC03809151
:1008C000FF0320E030E0981711F021E030E0C9018B
:1008D00008959091F5038091060420E030E0981788
:1008E00011F021E030E0C901089590910204809157
:1008F000000420E030E0981711F021E030E0C90159
:1009000008959091F6038091EF0320E030E098176E
:1009100011F021E030E0C90108952FB7F8949091CB
:10092000EC038091FF03981740F08091EC039091C5
:10093000FF032FBF891B992708958091EC039091A5
:10094000FF032FBF891B8058992708952FB7F8946C
:100950009091F50380910604981740F08091F5037B
:10096000909106042FBF891B992708958091F50364
:10097000909106042FBF891B8058992708952FB79F
:10098000F8949091020480910004981740F08091AF
:100990000204909100042FBF891B9927089580912C
:1009A0000204909100042FBF891B805C9927089551
:1009B0002FB7F8949091F6038091EF03981740F0C9
:1009C0008091F6039091EF032FBF891B992708951B
:1009D0008091F6039091EF032FBF891B805C9927CC
:1009E00008958FB7F89410920204109200048FBFFC
:1009F00008958FB7F8941092F6031092EF038FBF0B
:100A000008958FB7F8941092EC031092FF038FBFF4
:100A100008958FB7F8941092F503109206048FBFD3
:100A2000089580E00E9435048DE00E9435048AE03C
:100A30000E943504089580E00E9447048DE00E94E2
:100A400047048AE00E9447040895CF92DF92EF9214
:100A5000FF920F931F93CF93DF936C01C0E0D0E020
:100A6000EC2EFF2486010E0D1F1DF80180810E94CF
:100A700035042196F8018081882391F7C701DF9121
:100A8000CF911F910F91FF90EF90DF90CF9008953D
:100A9000CF92DF92EF92FF920F931F93CF93DF934A
:100AA0006C01C0E0D0E0EC2EFF2486010E0D1F1D6E
:100AB000F80180810E9447042196F80180818823F3
:100AC00091F7C701DF91CF911F910F91FF90EF90A8
:100AD000DF90CF900895EF92FF920F931F93CF93E3
:100AE000DF93EC01062F10E014C07E01E80EF91E22
:100AF0000E941104F70180838D3021F08A3011F0BB
:100B0000882331F4F70110821F5F812F992709C0D4
:100B10001F5F812F9927101741F7C80FD91F219701
:100B20001882DF91CF911F910F91FF90EF90089560
:100B3000EF92FF920F931F93CF93DF93EC01062F59
:100B400010E014C07E01E80EF91E0E942304F70194
:100B500080838D3021F08A3011F0882331F4F70141
:100B600010821F5F812F992709C01F5F812F99274E
:100B7000101741F7C80FD91F21971882DF91CF9125
:100B80001F910F91FF90EF900895FF920F931F9385
:100B9000CF93DF938C01F62EEC0103C089910E9464
:100BA0003504C8018F0D911DC817D907B9F7DF911A
:100BB000CF911F910F91FF900895FF920F931F9374
:100BC000CF93DF938C01F62EEC0103C089910E9434
:100BD0004704C8018F0D911DC817D907B9F7DF91D8
:100BE000CF911F910F91FF900895FF920F931F9344
:100BF000CF93DF938C01F62EEC0103C00E94110409
:100C00008993C8018F0D911DC817D907B9F7DF91D6
:100C1000CF911F910F91FF900895FF920F931F9313
:100C2000CF93DF938C01F62EEC0103C00E942304C6
:100C30008993C8018F0D911DC817D907B9F7DF91A6
:100C4000CF911F910F91FF9008951F920F920FB6B1
:100C50000F9211248F939F93EF93FF9390919C0099
:100C600090936302E091F503EF5FEF77E093620208
:100C7000E093F50380910604E81741F48FB7F894E8
:100C80001092F503109206048FBF04C0FF27EA5D9F
:100C9000FC4F9083FF91EF919F918F910F900FBE2A
:100CA0000F901F9018951F920F920FB60F9211245C
:100CB0008F939F93EF93FF939CB190936502E09184
:100CC000EC03EF5FEF77E0936402E093EC03809135
:100CD000FF03E81741F48FB7F8941092EC031092D9
:100CE000FF038FBF04C0FF27EA59FD4F9083FF9198
:100CF000EF919F918F910F900FBE0F901F901895BD
:100D0000EBE8F0E08081816F8083EAE8F0E08081A9
:100D100082608083E5E6F0E08081877F80830895AC
:100D20009C01892B21F461157105F1F523C0809197
:100D30006500886080936500121613061CF4DE9A25
:100D4000DD9802C0DE98DD9A161617061CF4DC9AB0
:100D5000DB9805C06115710569F0DC98DB9A77FFB7
:100D600003C0709561957F4F6F3F71052CF08FEF39
:100D700090E004C060E070E0862F99279093850092
:100D800080938400C90137FF03C0909581959F4FE0
:100D90008F3F91051CF08FEF90E001C09927909351
:100DA0008700809386000895809165008860809315
:100DB0006500CACF6FEF70E08FEF90E00E94900661
:100DC000DB9ADC9ADD9ADE9A0895E5E6F0E0808110
:100DD000877F8083089581EA8FBD82E08EBD08956C
:100DE000181619061CF4A99AA89804C0009769F06F
:100DF000A998A89A97FF03C0909581959F4F8F3F20
:100E000091052CF08FEF90E003C080E090E09927EF
:100E10009BBD8ABD089585B3836085BB8FEF90E04D
:100E20009BBD8ABD0895181619061CF4AB9AAA98A2
:100E300004C0009769F0AB98AA9A97FF03C09095F9
:100E400081959F4F8F3F91052CF08FEF90E003C06D
:100E500080E090E0992799BD88BD089585B38C60A6
:100E600085BB8FEF90E099BD88BD0895EBE8F0E079
:100E700080818860808380E890E0909383008093F5
:100E800082000895AD9AAC980895AD98AC9A0895F3
:100E900085B38F7C85BB089585B3806385BB08953A
:100EA000AF9AAE980895AF98AE9A089585B38F73B0
:100EB00085BB089585B3806C85BB08951F920F9202
:100EC0000FB60F9211242F938F939F938091E60377
:100ED0009091E703892B49F08091E6039091E70315
:100EE00001979093E7038093E6038091E803909144
:100EF000E90301969093E9038093E8030197845FE7
:100F0000914058F082B3805882BB83B190E4892726
:100F100083B91092E9031092E8038091EA0390915B
:100F2000EB03892B49F08091EA039091EB03019741
:100F30009093EB038093EA039F918F912F910F90F1
:100F40000FBE0F901F90189589EF81BF87B7826001
:100F500087BF8CE083BF08959093E7038093E603F7
:100F60008091E6039091E703892BD1F70895E4E699
:100F7000F0E080818C618083BF9AE5E6F0E08081BB
:100F80008860808380818F7E808385B58D6085BDFC
:100F900087B7806887BF17981F9A8AB780688ABF0B
:100FA00089B7806889BF1092F00388E280930304B8
:100FB0000895E5E6F0E080818F7E80830895E5E680
:100FC000F0E08081806180830895882359F08091CA
:100FD00065008460809365008091F1039091F20335
:100FE00001970AC0809165008B7F80936500809196
:100FF000F1039091F20301969093F2038093F10331
:10100000C79A85E08A95F1F7C798089584E680939A
:10101000030484E690E0909308048093070404C0DE
:101020008091F003882339F48091F1039091F203C9
:1010300084369105A9F78091F003882351F486E066
:101040009FEF90930804809307048091F003882316
:10105000E1F31092F00388E280930304809103048B
:1010600083BD88EC90E09093080480930704089572
:101070001F920F920FB60F9211248F939F9381E0CE
:101080008093F0038091F1039091F20380359105F4
:101090003CF08091F1039091F2038937910534F08F
:1010A00084E690E09093F2038093F1039F918F91F7
:1010B0000F900FBE0F901F9018951F920F920FB6B2
:1010C0000F9211240F931F932F933F934F935F938E
:1010D0006F937F938F939F93AF93BF93EF93FF9300
:1010E0002091F1033091F20380910704909108045C
:1010F00028173907D4F42091F1033091F20380913D
:101100000704909108044E97821793071CF483B547
:101110008F5F07C093B580910304891718F483B5D6
:10112000815083BD80E00E94E5072091F10330915A
:10113000F203809107049091080482179307D4F476
:101140002091F1033091F2038091070490910804FB
:101150004E96281739071CF483B58F5F07C093B5E7
:1011600080910304891718F483B5815083BD81E011
:101170000E94E5072091F1033091F203809107046A
:10118000909108042817390721F480910304825EA6
:1011900083BD8091F1039091F20397FD15C080917A
:1011A000F1039091F203893C910574F40091F103ED
:1011B0001091F2038091090490910A040E94F708AB
:1011C000035F1B4FF8018083FF91EF91BF91AF91B7
:1011D0009F918F917F916F915F914F913F912F914F
:1011E0001F910F910F900FBE0F901F90189596951D
:1011F000879596958795EBE5F1E0E80FF11D8081E5
:10120000992790930C0480930B040895FC01882780
:101210009927E89421912032E9F3293010F02E30FB
:10122000C8F32B3241F02D3239F4689404C00E9487
:101230004509820F911D219120532A30C0F31EF4DD
:10124000909581959F4F0895FB019F01E89442304E
:10125000C4F04532B4F44A3029F497FB1EF490955B
:1012600081959F4F642F77270E941A0A805D8A33E9
:101270000CF0895D8193CB010097A1F716F45DE234
:1012800051931082C9010C944D097AE0979F902DDB
:10129000879F802D910D11240895DC01FC01672F9B
:1012A00071917723E1F7329704C07C916D9370833D
:1012B0006291AE17BF07C8F3089597FB4ED09F37D2
:1012C00038F0FEE9F91B982F872F762F6B2F05C07A
:1012D00061C09695879577956795F150D0F73EF464
:1012E00090958095709561957F4F8F4F9F4F089592
:1012F000E89403C097FB0EF4F3DFB62F672F782F27
:10130000892F9EE9002405C09A95BB0F661F771FA1
:10131000881F11249923A1F08823B2F79F3F59F029
:10132000BB0F48F421F4002011F460FF04C06F5F8C
:101330007F4F8F4F9F4F881F9795879597F90895F7
:1013400029C0052E092607FA440F551F5F3F79F083
:10135000AA27A51708F051E04795880F991F9F3FCE
:1013600031F0BB27B91708F091E0879508959F9158
:101370009F9111245CC097FB880F991F9F3F31F00C
:10138000BB27B91708F091E0879508959F919F9129
:1013900011244DC066277727882799270895D1DF24
:1013A00001D0B7CF992339F0552329F09F575F57C4
:1013B000950F13F49AF1F1CF91589F3FE1F3629F9B
:1013C000A12D0F92BB27639FA00DB11DEE27729F29
:1013D000A00DB11DEE1FAF93AA27649FB00DE11DB4
:1013E000739FB00DE11DAA1F6627829FB00DE11DFE
:1013F000A61F5527749FE00DA11D551F839FE00D6B
:10140000A11D561F849FA00D511D852F7A2F6E2F71
:101410001F900F9088231AF4939539F408C0000C9C
:10142000111CBB1F661F771F881F012808959FEF9F
:1014300080EC0895AA1BBB1B51E107C0AA1FBB1F6C
:10144000A617B70710F0A61BB70B881F991F5A9550
:0E145000A9F780959095BC01CD010895FFCFBE
:10145E001001554152543020746573740D0A0050BA
:10146E006F64616A206E6F776120707265646B6F56
:10147E00736320282D323535202D20323535293A0B
:10148E0020000D0A00506F64616A206E6F77612034
:10149E00706F7A79636A653A2000495F4D313A2060
:1014AE00000A0D00495F4D323A2000FFFFFFFFFF9B
:1014BE00FFFFFFFFFFFFFFFFFFFFFFFFFFFFFFFF2E
:1014CE00FFFFFFFFFFFFFF726F6C6A686562605E71
:1014DE005C5A58565452504E4D4B49474644434120
:1014EE00403F3D3C3B39383736353433323130307E
:1014FE002E2E2D2C2B2A2A2928282727262625244E
:10150E00242423232222222121202020201F1F1EBB
:10151E001E1E1E1E1D1D1D1C1C1C1C1C1C1B1B1BF5
:10152E001B1A1A1A1A1A1A1A1A1919191918181816
:10153E00181818181817171717161616161616162F
:10154E001515151514141414141413131312121252
:10155E001212121111111111111010100F0F0F0F75
:10156E000F0F0E0E0E0D0D0D0D0D0D0D0C0C0C0B9B
:10157E000B0B0B0B0B0B0B0B0B0B0A0A0A0A0A0AB3
:10158E000A0A0A0A0A0B0B0B0B0B0B0B0B0B0C0CA0
:10159E000D0D0D0D0E0F0F0F101111111212131440
:0C15AE0015161618181A1A1C1C1E1F0017
:00000001FF
